{
  "_format": "hh-sol-artifact-1",
  "contractName": "GifPronunciationPortal",
  "sourceName": "contracts/GifPronunciationPortal.sol",
  "abi": [
    {
      "inputs": [],
      "stateMutability": "payable",
      "type": "constructor"
    },
    {
      "anonymous": false,
      "inputs": [
        {
          "indexed": true,
          "internalType": "address",
          "name": "from",
          "type": "address"
        },
        {
          "indexed": false,
          "internalType": "string",
          "name": "name",
          "type": "string"
        },
        {
          "indexed": false,
          "internalType": "string",
          "name": "vote",
          "type": "string"
        },
        {
          "indexed": false,
          "internalType": "uint256",
          "name": "timestamp",
          "type": "uint256"
        }
      ],
      "name": "NewVote",
      "type": "event"
    },
    {
      "inputs": [
        {
          "internalType": "string",
          "name": "_name",
          "type": "string"
        },
        {
          "internalType": "bool",
          "name": "isSoft",
          "type": "bool"
        }
      ],
      "name": "castVote",
      "outputs": [],
      "stateMutability": "nonpayable",
      "type": "function"
    },
    {
      "inputs": [],
      "name": "getAllVotes",
      "outputs": [
        {
          "components": [
            {
              "internalType": "address",
              "name": "voter",
              "type": "address"
            },
            {
              "internalType": "string",
              "name": "name",
              "type": "string"
            },
            {
              "internalType": "string",
              "name": "vote",
              "type": "string"
            },
            {
              "internalType": "uint256",
              "name": "timestamp",
              "type": "uint256"
            }
          ],
          "internalType": "struct GifPronunciationPortal.Vote[]",
          "name": "",
          "type": "tuple[]"
        }
      ],
      "stateMutability": "view",
      "type": "function"
    },
    {
      "inputs": [],
      "name": "getHardTotal",
      "outputs": [
        {
          "internalType": "uint256",
          "name": "",
          "type": "uint256"
        }
      ],
      "stateMutability": "view",
      "type": "function"
    },
    {
      "inputs": [],
      "name": "getSoftTotal",
      "outputs": [
        {
          "internalType": "uint256",
          "name": "",
          "type": "uint256"
        }
      ],
      "stateMutability": "view",
      "type": "function"
    },
    {
      "inputs": [
        {
          "internalType": "address",
          "name": "",
          "type": "address"
        }
      ],
      "name": "lastVoted",
      "outputs": [
        {
          "internalType": "uint256",
          "name": "",
          "type": "uint256"
        }
      ],
      "stateMutability": "view",
      "type": "function"
    }
  ],
  "bytecode": "0x6080604052620000336040518060800160405280605b815260200162001a33605b91396200005b60201b620009431760201c565b60644442620000439190620001a8565b6200004f919062000245565b600281905550620002ec565b620000fb8160405160240162000072919062000168565b6040516020818303038152906040527f41304fac000000000000000000000000000000000000000000000000000000007bffffffffffffffffffffffffffffffffffffffffffffffffffffffff19166020820180517bffffffffffffffffffffffffffffffffffffffffffffffffffffffff8381831617835250505050620000fe60201b60201c565b50565b60008151905060006a636f6e736f6c652e6c6f679050602083016000808483855afa5050505050565b600062000134826200018c565b62000140818562000197565b9350620001528185602086016200020f565b6200015d81620002db565b840191505092915050565b6000602082019050818103600083015262000184818462000127565b905092915050565b600081519050919050565b600082825260208201905092915050565b6000620001b58262000205565b9150620001c28362000205565b9250827fffffffffffffffffffffffffffffffffffffffffffffffffffffffffffffffff03821115620001fa57620001f96200027d565b5b828201905092915050565b6000819050919050565b60005b838110156200022f57808201518184015260208101905062000212565b838111156200023f576000848401525b50505050565b6000620002528262000205565b91506200025f8362000205565b925082620002725762000271620002ac565b5b828206905092915050565b7f4e487b7100000000000000000000000000000000000000000000000000000000600052601160045260246000fd5b7f4e487b7100000000000000000000000000000000000000000000000000000000600052601260045260246000fd5b6000601f19601f8301169050919050565b61173780620002fc6000396000f3fe608060405234801561001057600080fd5b50600436106100575760003560e01c80630af111c61461005c578063199edd7a1461007a578063851b6ef2146100965780639a61df89146100b4578063ac7b6bc3146100e4575b600080fd5b610064610102565b60405161007191906111d4565b60405180910390f35b610094600480360381019061008f9190610d37565b61014d565b005b61009e6106fd565b6040516100ab9190611013565b60405180910390f35b6100ce60048036038101906100c99190610d0e565b6108e0565b6040516100db91906111d4565b60405180910390f35b6100ec6108f8565b6040516100f991906111d4565b60405180910390f35b60006101456040518060400160405280601e81526020017f7765206861766520256420746f74616c2068617264204720766f7465730a00008152506001546109dc565b600154905090565b426007600460003373ffffffffffffffffffffffffffffffffffffffff1673ffffffffffffffffffffffffffffffffffffffff1681526020019081526020016000205461019a91906112b6565b106101da576040517f08c379a00000000000000000000000000000000000000000000000000000000081526004016101d1906111b4565b60405180910390fd5b42600460003373ffffffffffffffffffffffffffffffffffffffff1673ffffffffffffffffffffffffffffffffffffffff168152602001908152602001600020819055506064600254424461022f91906112b6565b61023991906112b6565b61024391906113f9565b60028190555060326002541161038f576102926040518060400160405280600781526020017f257320776f6e210000000000000000000000000000000000000000000000000081525033610a78565b6000655af3107a40009050478111156102e0576040517f08c379a00000000000000000000000000000000000000000000000000000000081526004016102d790611174565b60405180910390fd5b60003373ffffffffffffffffffffffffffffffffffffffff168260405161030690610ffe565b60006040518083038185875af1925050503d8060008114610343576040519150601f19603f3d011682016040523d82523d6000602084013e610348565b606091505b505090508061038c576040517f08c379a000000000000000000000000000000000000000000000000000000000815260040161038390611194565b60405180910390fd5b50505b80156105495760016000808282546103a791906112b6565b925050819055506103d06040518060600160405280603a81526020016116c8603a913983610b14565b600360405180608001604052803373ffffffffffffffffffffffffffffffffffffffff1681526020018481526020016040518060400160405280600481526020017f736f667400000000000000000000000000000000000000000000000000000000815250815260200142815250908060018154018082558091505060019003906000526020600020906004020160009091909190915060008201518160000160006101000a81548173ffffffffffffffffffffffffffffffffffffffff021916908373ffffffffffffffffffffffffffffffffffffffff16021790555060208201518160010190805190602001906104ca929190610bd9565b5060408201518160020190805190602001906104e7929190610bd9565b506060820151816003015550503373ffffffffffffffffffffffffffffffffffffffff167f5aef1462484efb5eb8cb16fa191100f2c3341223dc6c2a8d5d34f3dd4f916d91834260405161053c9291906110be565b60405180910390a26106f9565b600180600082825461055b91906112b6565b925050819055506105846040518060600160405280603a815260200161168e603a913983610b14565b600360405180608001604052803373ffffffffffffffffffffffffffffffffffffffff1681526020018481526020016040518060400160405280600481526020017f6861726400000000000000000000000000000000000000000000000000000000815250815260200142815250908060018154018082558091505060019003906000526020600020906004020160009091909190915060008201518160000160006101000a81548173ffffffffffffffffffffffffffffffffffffffff021916908373ffffffffffffffffffffffffffffffffffffffff160217905550602082015181600101908051906020019061067e929190610bd9565b50604082015181600201908051906020019061069b929190610bd9565b506060820151816003015550503373ffffffffffffffffffffffffffffffffffffffff167f5aef1462484efb5eb8cb16fa191100f2c3341223dc6c2a8d5d34f3dd4f916d9183426040516106f0929190611101565b60405180910390a25b5050565b60606003805480602002602001604051908101604052809291908181526020016000905b828210156108d757838290600052602060002090600402016040518060800160405290816000820160009054906101000a900473ffffffffffffffffffffffffffffffffffffffff1673ffffffffffffffffffffffffffffffffffffffff1673ffffffffffffffffffffffffffffffffffffffff1681526020016001820180546107aa90611396565b80601f01602080910402602001604051908101604052809291908181526020018280546107d690611396565b80156108235780601f106107f857610100808354040283529160200191610823565b820191906000526020600020905b81548152906001019060200180831161080657829003601f168201915b5050505050815260200160028201805461083c90611396565b80601f016020809104026020016040519081016040528092919081815260200182805461086890611396565b80156108b55780601f1061088a576101008083540402835291602001916108b5565b820191906000526020600020905b81548152906001019060200180831161089857829003601f168201915b5050505050815260200160038201548152505081526020019060010190610721565b50505050905090565b60046020528060005260406000206000915090505481565b600061093b6040518060400160405280601e81526020017f7765206861766520256420746f74616c20736f6674204720766f7465730a00008152506000546109dc565b600054905090565b6109d9816040516024016109579190611035565b6040516020818303038152906040527f41304fac000000000000000000000000000000000000000000000000000000007bffffffffffffffffffffffffffffffffffffffffffffffffffffffff19166020820180517bffffffffffffffffffffffffffffffffffffffffffffffffffffffff8381831617835250505050610bb0565b50565b610a7482826040516024016109f2929190611144565b6040516020818303038152906040527f9710a9d0000000000000000000000000000000000000000000000000000000007bffffffffffffffffffffffffffffffffffffffffffffffffffffffff19166020820180517bffffffffffffffffffffffffffffffffffffffffffffffffffffffff8381831617835250505050610bb0565b5050565b610b108282604051602401610a8e929190611057565b6040516020818303038152906040527f319af333000000000000000000000000000000000000000000000000000000007bffffffffffffffffffffffffffffffffffffffffffffffffffffffff19166020820180517bffffffffffffffffffffffffffffffffffffffffffffffffffffffff8381831617835250505050610bb0565b5050565b610bac8282604051602401610b2a929190611087565b6040516020818303038152906040527f4b5c4277000000000000000000000000000000000000000000000000000000007bffffffffffffffffffffffffffffffffffffffffffffffffffffffff19166020820180517bffffffffffffffffffffffffffffffffffffffffffffffffffffffff8381831617835250505050610bb0565b5050565b60008151905060006a636f6e736f6c652e6c6f679050602083016000808483855afa5050505050565b828054610be590611396565b90600052602060002090601f016020900481019282610c075760008555610c4e565b82601f10610c2057805160ff1916838001178555610c4e565b82800160010185558215610c4e579182015b82811115610c4d578251825591602001919060010190610c32565b5b509050610c5b9190610c5f565b5090565b5b80821115610c78576000816000905550600101610c60565b5090565b6000610c8f610c8a84611214565b6111ef565b905082815260208101848484011115610ca757600080fd5b610cb2848285611354565b509392505050565b600081359050610cc98161165f565b92915050565b600081359050610cde81611676565b92915050565b600082601f830112610cf557600080fd5b8135610d05848260208601610c7c565b91505092915050565b600060208284031215610d2057600080fd5b6000610d2e84828501610cba565b91505092915050565b60008060408385031215610d4a57600080fd5b600083013567ffffffffffffffff811115610d6457600080fd5b610d7085828601610ce4565b9250506020610d8185828601610ccf565b9150509250929050565b6000610d978383610f76565b905092915050565b610da88161130c565b82525050565b610db78161130c565b82525050565b6000610dc882611255565b610dd28185611278565b935083602082028501610de485611245565b8060005b85811015610e205784840389528151610e018582610d8b565b9450610e0c8361126b565b925060208a01995050600181019050610de8565b50829750879550505050505092915050565b6000610e3d82611260565b610e478185611294565b9350610e57818560208601611363565b610e60816114e6565b840191505092915050565b6000610e7682611260565b610e8081856112a5565b9350610e90818560208601611363565b610e99816114e6565b840191505092915050565b6000610eb16040836112a5565b9150610ebc826114f7565b604082019050919050565b6000610ed46027836112a5565b9150610edf82611546565b604082019050919050565b6000610ef76004836112a5565b9150610f0282611595565b602082019050919050565b6000610f1a6004836112a5565b9150610f25826115be565b602082019050919050565b6000610f3d600083611289565b9150610f48826115e7565b600082019050919050565b6000610f606042836112a5565b9150610f6b826115ea565b606082019050919050565b6000608083016000830151610f8e6000860182610d9f565b5060208301518482036020860152610fa68282610e32565b91505060408301518482036040860152610fc08282610e32565b9150506060830151610fd56060860182610fe0565b508091505092915050565b610fe98161134a565b82525050565b610ff88161134a565b82525050565b600061100982610f30565b9150819050919050565b6000602082019050818103600083015261102d8184610dbd565b905092915050565b6000602082019050818103600083015261104f8184610e6b565b905092915050565b600060408201905081810360008301526110718185610e6b565b90506110806020830184610dae565b9392505050565b600060408201905081810360008301526110a18185610e6b565b905081810360208301526110b58184610e6b565b90509392505050565b600060608201905081810360008301526110d88185610e6b565b905081810360208301526110eb81610eea565b90506110fa6040830184610fef565b9392505050565b6000606082019050818103600083015261111b8185610e6b565b9050818103602083015261112e81610f0d565b905061113d6040830184610fef565b9392505050565b6000604082019050818103600083015261115e8185610e6b565b905061116d6020830184610fef565b9392505050565b6000602082019050818103600083015261118d81610ea4565b9050919050565b600060208201905081810360008301526111ad81610ec7565b9050919050565b600060208201905081810360008301526111cd81610f53565b9050919050565b60006020820190506111e96000830184610fef565b92915050565b60006111f961120a565b905061120582826113c8565b919050565b6000604051905090565b600067ffffffffffffffff82111561122f5761122e6114b7565b5b611238826114e6565b9050602081019050919050565b6000819050602082019050919050565b600081519050919050565b600081519050919050565b6000602082019050919050565b600082825260208201905092915050565b600081905092915050565b600082825260208201905092915050565b600082825260208201905092915050565b60006112c18261134a565b91506112cc8361134a565b9250827fffffffffffffffffffffffffffffffffffffffffffffffffffffffffffffffff038211156113015761130061142a565b5b828201905092915050565b60006113178261132a565b9050919050565b60008115159050919050565b600073ffffffffffffffffffffffffffffffffffffffff82169050919050565b6000819050919050565b82818337600083830152505050565b60005b83811015611381578082015181840152602081019050611366565b83811115611390576000848401525b50505050565b600060028204905060018216806113ae57607f821691505b602082108114156113c2576113c1611488565b5b50919050565b6113d1826114e6565b810181811067ffffffffffffffff821117156113f0576113ef6114b7565b5b80604052505050565b60006114048261134a565b915061140f8361134a565b92508261141f5761141e611459565b5b828206905092915050565b7f4e487b7100000000000000000000000000000000000000000000000000000000600052601160045260246000fd5b7f4e487b7100000000000000000000000000000000000000000000000000000000600052601260045260246000fd5b7f4e487b7100000000000000000000000000000000000000000000000000000000600052602260045260246000fd5b7f4e487b7100000000000000000000000000000000000000000000000000000000600052604160045260246000fd5b6000601f19601f8301169050919050565b7f547279696e6720746f207769746864726177206d6f7265206d6f6e657920746860008201527f616e20697320617661696c61626c6520696e2074686520636f6e74726163742e602082015250565b7f4661696c656420746f207769746864726177206d6f6e65792066726f6d20636f60008201527f6e74726163742e00000000000000000000000000000000000000000000000000602082015250565b7f736f667400000000000000000000000000000000000000000000000000000000600082015250565b7f6861726400000000000000000000000000000000000000000000000000000000600082015250565b50565b7f2a202a202a202a202a202a202a20594f552043414e204f4e4c5920564f54452060008201527f4f4e43452045564552592037205345434f4e4453202a202a202a202a202a202a60208201527f202a000000000000000000000000000000000000000000000000000000000000604082015250565b6116688161130c565b811461167357600080fd5b50565b61167f8161131e565b811461168a57600080fd5b5056fe2573207468696e6b73204749462069732070726f6e6f756e63656420776974682061206861726420472028617320696e20676f72696c6c61290a2573207468696e6b73204749462069732070726f6e6f756e6365642077697468206120736f667420472028617320696e2067697261666665290aa264697066735822122099f9031f2ad6a8e8eb8b8bcfca572c3a281a8bb1b4e0d85ad0899d375bb978d464736f6c6343000804003354686973206973206120736d61727420636f6e747261637420666f7220766f74696e67206f6e20776865746865722027474946272069732070726f6e6f756e636564207769746820612068617264206f72206120736f667420470a",
  "linkReferences": {},
  "deployedLinkReferences": {}
}