{
  "_format": "hh-sol-artifact-1",
  "contractName": "GifPronunciationPortal",
  "sourceName": "contracts/GifPronunciationPortal.sol",
  "abi": [
    {
      "inputs": [],
      "stateMutability": "payable",
      "type": "constructor"
    },
    {
      "anonymous": false,
      "inputs": [
        {
          "indexed": true,
          "internalType": "address",
          "name": "from",
          "type": "address"
        },
        {
          "indexed": false,
          "internalType": "string",
          "name": "name",
          "type": "string"
        },
        {
          "indexed": false,
          "internalType": "string",
          "name": "vote",
          "type": "string"
        },
        {
          "indexed": false,
          "internalType": "uint256",
          "name": "timestamp",
          "type": "uint256"
        }
      ],
      "name": "NewVote",
      "type": "event"
    },
    {
      "inputs": [
        {
          "internalType": "string",
          "name": "_name",
          "type": "string"
        },
        {
          "internalType": "bool",
          "name": "isSoft",
          "type": "bool"
        }
      ],
      "name": "castVote",
      "outputs": [],
      "stateMutability": "nonpayable",
      "type": "function"
    },
    {
      "inputs": [],
      "name": "getAllVotes",
      "outputs": [
        {
          "components": [
            {
              "internalType": "address",
              "name": "voter",
              "type": "address"
            },
            {
              "internalType": "string",
              "name": "name",
              "type": "string"
            },
            {
              "internalType": "string",
              "name": "vote",
              "type": "string"
            },
            {
              "internalType": "uint256",
              "name": "timestamp",
              "type": "uint256"
            }
          ],
          "internalType": "struct GifPronunciationPortal.Vote[]",
          "name": "",
          "type": "tuple[]"
        }
      ],
      "stateMutability": "view",
      "type": "function"
    },
    {
      "inputs": [],
      "name": "getHardTotal",
      "outputs": [
        {
          "internalType": "uint256",
          "name": "",
          "type": "uint256"
        }
      ],
      "stateMutability": "view",
      "type": "function"
    },
    {
      "inputs": [],
      "name": "getSoftTotal",
      "outputs": [
        {
          "internalType": "uint256",
          "name": "",
          "type": "uint256"
        }
      ],
      "stateMutability": "view",
      "type": "function"
    },
    {
      "inputs": [
        {
          "internalType": "address",
          "name": "",
          "type": "address"
        }
      ],
      "name": "lastVoted",
      "outputs": [
        {
          "internalType": "uint256",
          "name": "",
          "type": "uint256"
        }
      ],
      "stateMutability": "view",
      "type": "function"
    }
  ],
  "bytecode": "0x6080604052620000336040518060800160405280605b815260200162001a32605b91396200005b60201b620009421760201c565b60644442620000439190620001a8565b6200004f919062000245565b600281905550620002ec565b620000fb8160405160240162000072919062000168565b6040516020818303038152906040527f41304fac000000000000000000000000000000000000000000000000000000007bffffffffffffffffffffffffffffffffffffffffffffffffffffffff19166020820180517bffffffffffffffffffffffffffffffffffffffffffffffffffffffff8381831617835250505050620000fe60201b60201c565b50565b60008151905060006a636f6e736f6c652e6c6f679050602083016000808483855afa5050505050565b600062000134826200018c565b62000140818562000197565b9350620001528185602086016200020f565b6200015d81620002db565b840191505092915050565b6000602082019050818103600083015262000184818462000127565b905092915050565b600081519050919050565b600082825260208201905092915050565b6000620001b58262000205565b9150620001c28362000205565b9250827fffffffffffffffffffffffffffffffffffffffffffffffffffffffffffffffff03821115620001fa57620001f96200027d565b5b828201905092915050565b6000819050919050565b60005b838110156200022f57808201518184015260208101905062000212565b838111156200023f576000848401525b50505050565b6000620002528262000205565b91506200025f8362000205565b925082620002725762000271620002ac565b5b828206905092915050565b7f4e487b7100000000000000000000000000000000000000000000000000000000600052601160045260246000fd5b7f4e487b7100000000000000000000000000000000000000000000000000000000600052601260045260246000fd5b6000601f19601f8301169050919050565b61173680620002fc6000396000f3fe608060405234801561001057600080fd5b50600436106100575760003560e01c80630af111c61461005c578063199edd7a1461007a578063851b6ef2146100965780639a61df89146100b4578063ac7b6bc3146100e4575b600080fd5b610064610102565b60405161007191906111d3565b60405180910390f35b610094600480360381019061008f9190610d36565b61014d565b005b61009e6106fc565b6040516100ab9190611012565b60405180910390f35b6100ce60048036038101906100c99190610d0d565b6108df565b6040516100db91906111d3565b60405180910390f35b6100ec6108f7565b6040516100f991906111d3565b60405180910390f35b60006101456040518060400160405280601e81526020017f7765206861766520256420746f74616c2068617264204720766f7465730a00008152506001546109db565b600154905090565b426007600460003373ffffffffffffffffffffffffffffffffffffffff1673ffffffffffffffffffffffffffffffffffffffff1681526020019081526020016000205461019a91906112b5565b106101da576040517f08c379a00000000000000000000000000000000000000000000000000000000081526004016101d1906111b3565b60405180910390fd5b42600460003373ffffffffffffffffffffffffffffffffffffffff1673ffffffffffffffffffffffffffffffffffffffff168152602001908152602001600020819055506064600254424461022f91906112b5565b61023991906112b5565b61024391906113f8565b60028190555060016002541161038e576102926040518060400160405280600781526020017f257320776f6e210000000000000000000000000000000000000000000000000081525033610a77565b60006402540be4009050478111156102df576040517f08c379a00000000000000000000000000000000000000000000000000000000081526004016102d690611173565b60405180910390fd5b60003373ffffffffffffffffffffffffffffffffffffffff168260405161030590610ffd565b60006040518083038185875af1925050503d8060008114610342576040519150601f19603f3d011682016040523d82523d6000602084013e610347565b606091505b505090508061038b576040517f08c379a000000000000000000000000000000000000000000000000000000000815260040161038290611193565b60405180910390fd5b50505b80156105485760016000808282546103a691906112b5565b925050819055506103cf6040518060600160405280603a81526020016116c7603a913983610b13565b600360405180608001604052803373ffffffffffffffffffffffffffffffffffffffff1681526020018481526020016040518060400160405280600481526020017f736f667400000000000000000000000000000000000000000000000000000000815250815260200142815250908060018154018082558091505060019003906000526020600020906004020160009091909190915060008201518160000160006101000a81548173ffffffffffffffffffffffffffffffffffffffff021916908373ffffffffffffffffffffffffffffffffffffffff16021790555060208201518160010190805190602001906104c9929190610bd8565b5060408201518160020190805190602001906104e6929190610bd8565b506060820151816003015550503373ffffffffffffffffffffffffffffffffffffffff167f5aef1462484efb5eb8cb16fa191100f2c3341223dc6c2a8d5d34f3dd4f916d91834260405161053b9291906110bd565b60405180910390a26106f8565b600180600082825461055a91906112b5565b925050819055506105836040518060600160405280603a815260200161168d603a913983610b13565b600360405180608001604052803373ffffffffffffffffffffffffffffffffffffffff1681526020018481526020016040518060400160405280600481526020017f6861726400000000000000000000000000000000000000000000000000000000815250815260200142815250908060018154018082558091505060019003906000526020600020906004020160009091909190915060008201518160000160006101000a81548173ffffffffffffffffffffffffffffffffffffffff021916908373ffffffffffffffffffffffffffffffffffffffff160217905550602082015181600101908051906020019061067d929190610bd8565b50604082015181600201908051906020019061069a929190610bd8565b506060820151816003015550503373ffffffffffffffffffffffffffffffffffffffff167f5aef1462484efb5eb8cb16fa191100f2c3341223dc6c2a8d5d34f3dd4f916d9183426040516106ef929190611100565b60405180910390a25b5050565b60606003805480602002602001604051908101604052809291908181526020016000905b828210156108d657838290600052602060002090600402016040518060800160405290816000820160009054906101000a900473ffffffffffffffffffffffffffffffffffffffff1673ffffffffffffffffffffffffffffffffffffffff1673ffffffffffffffffffffffffffffffffffffffff1681526020016001820180546107a990611395565b80601f01602080910402602001604051908101604052809291908181526020018280546107d590611395565b80156108225780601f106107f757610100808354040283529160200191610822565b820191906000526020600020905b81548152906001019060200180831161080557829003601f168201915b5050505050815260200160028201805461083b90611395565b80601f016020809104026020016040519081016040528092919081815260200182805461086790611395565b80156108b45780601f10610889576101008083540402835291602001916108b4565b820191906000526020600020905b81548152906001019060200180831161089757829003601f168201915b5050505050815260200160038201548152505081526020019060010190610720565b50505050905090565b60046020528060005260406000206000915090505481565b600061093a6040518060400160405280601e81526020017f7765206861766520256420746f74616c20736f6674204720766f7465730a00008152506000546109db565b600054905090565b6109d8816040516024016109569190611034565b6040516020818303038152906040527f41304fac000000000000000000000000000000000000000000000000000000007bffffffffffffffffffffffffffffffffffffffffffffffffffffffff19166020820180517bffffffffffffffffffffffffffffffffffffffffffffffffffffffff8381831617835250505050610baf565b50565b610a7382826040516024016109f1929190611143565b6040516020818303038152906040527f9710a9d0000000000000000000000000000000000000000000000000000000007bffffffffffffffffffffffffffffffffffffffffffffffffffffffff19166020820180517bffffffffffffffffffffffffffffffffffffffffffffffffffffffff8381831617835250505050610baf565b5050565b610b0f8282604051602401610a8d929190611056565b6040516020818303038152906040527f319af333000000000000000000000000000000000000000000000000000000007bffffffffffffffffffffffffffffffffffffffffffffffffffffffff19166020820180517bffffffffffffffffffffffffffffffffffffffffffffffffffffffff8381831617835250505050610baf565b5050565b610bab8282604051602401610b29929190611086565b6040516020818303038152906040527f4b5c4277000000000000000000000000000000000000000000000000000000007bffffffffffffffffffffffffffffffffffffffffffffffffffffffff19166020820180517bffffffffffffffffffffffffffffffffffffffffffffffffffffffff8381831617835250505050610baf565b5050565b60008151905060006a636f6e736f6c652e6c6f679050602083016000808483855afa5050505050565b828054610be490611395565b90600052602060002090601f016020900481019282610c065760008555610c4d565b82601f10610c1f57805160ff1916838001178555610c4d565b82800160010185558215610c4d579182015b82811115610c4c578251825591602001919060010190610c31565b5b509050610c5a9190610c5e565b5090565b5b80821115610c77576000816000905550600101610c5f565b5090565b6000610c8e610c8984611213565b6111ee565b905082815260208101848484011115610ca657600080fd5b610cb1848285611353565b509392505050565b600081359050610cc88161165e565b92915050565b600081359050610cdd81611675565b92915050565b600082601f830112610cf457600080fd5b8135610d04848260208601610c7b565b91505092915050565b600060208284031215610d1f57600080fd5b6000610d2d84828501610cb9565b91505092915050565b60008060408385031215610d4957600080fd5b600083013567ffffffffffffffff811115610d6357600080fd5b610d6f85828601610ce3565b9250506020610d8085828601610cce565b9150509250929050565b6000610d968383610f75565b905092915050565b610da78161130b565b82525050565b610db68161130b565b82525050565b6000610dc782611254565b610dd18185611277565b935083602082028501610de385611244565b8060005b85811015610e1f5784840389528151610e008582610d8a565b9450610e0b8361126a565b925060208a01995050600181019050610de7565b50829750879550505050505092915050565b6000610e3c8261125f565b610e468185611293565b9350610e56818560208601611362565b610e5f816114e5565b840191505092915050565b6000610e758261125f565b610e7f81856112a4565b9350610e8f818560208601611362565b610e98816114e5565b840191505092915050565b6000610eb06040836112a4565b9150610ebb826114f6565b604082019050919050565b6000610ed36027836112a4565b9150610ede82611545565b604082019050919050565b6000610ef66004836112a4565b9150610f0182611594565b602082019050919050565b6000610f196004836112a4565b9150610f24826115bd565b602082019050919050565b6000610f3c600083611288565b9150610f47826115e6565b600082019050919050565b6000610f5f6042836112a4565b9150610f6a826115e9565b606082019050919050565b6000608083016000830151610f8d6000860182610d9e565b5060208301518482036020860152610fa58282610e31565b91505060408301518482036040860152610fbf8282610e31565b9150506060830151610fd46060860182610fdf565b508091505092915050565b610fe881611349565b82525050565b610ff781611349565b82525050565b600061100882610f2f565b9150819050919050565b6000602082019050818103600083015261102c8184610dbc565b905092915050565b6000602082019050818103600083015261104e8184610e6a565b905092915050565b600060408201905081810360008301526110708185610e6a565b905061107f6020830184610dad565b9392505050565b600060408201905081810360008301526110a08185610e6a565b905081810360208301526110b48184610e6a565b90509392505050565b600060608201905081810360008301526110d78185610e6a565b905081810360208301526110ea81610ee9565b90506110f96040830184610fee565b9392505050565b6000606082019050818103600083015261111a8185610e6a565b9050818103602083015261112d81610f0c565b905061113c6040830184610fee565b9392505050565b6000604082019050818103600083015261115d8185610e6a565b905061116c6020830184610fee565b9392505050565b6000602082019050818103600083015261118c81610ea3565b9050919050565b600060208201905081810360008301526111ac81610ec6565b9050919050565b600060208201905081810360008301526111cc81610f52565b9050919050565b60006020820190506111e86000830184610fee565b92915050565b60006111f8611209565b905061120482826113c7565b919050565b6000604051905090565b600067ffffffffffffffff82111561122e5761122d6114b6565b5b611237826114e5565b9050602081019050919050565b6000819050602082019050919050565b600081519050919050565b600081519050919050565b6000602082019050919050565b600082825260208201905092915050565b600081905092915050565b600082825260208201905092915050565b600082825260208201905092915050565b60006112c082611349565b91506112cb83611349565b9250827fffffffffffffffffffffffffffffffffffffffffffffffffffffffffffffffff03821115611300576112ff611429565b5b828201905092915050565b600061131682611329565b9050919050565b60008115159050919050565b600073ffffffffffffffffffffffffffffffffffffffff82169050919050565b6000819050919050565b82818337600083830152505050565b60005b83811015611380578082015181840152602081019050611365565b8381111561138f576000848401525b50505050565b600060028204905060018216806113ad57607f821691505b602082108114156113c1576113c0611487565b5b50919050565b6113d0826114e5565b810181811067ffffffffffffffff821117156113ef576113ee6114b6565b5b80604052505050565b600061140382611349565b915061140e83611349565b92508261141e5761141d611458565b5b828206905092915050565b7f4e487b7100000000000000000000000000000000000000000000000000000000600052601160045260246000fd5b7f4e487b7100000000000000000000000000000000000000000000000000000000600052601260045260246000fd5b7f4e487b7100000000000000000000000000000000000000000000000000000000600052602260045260246000fd5b7f4e487b7100000000000000000000000000000000000000000000000000000000600052604160045260246000fd5b6000601f19601f8301169050919050565b7f547279696e6720746f207769746864726177206d6f7265206d6f6e657920746860008201527f616e20697320617661696c61626c6520696e2074686520636f6e74726163742e602082015250565b7f4661696c656420746f207769746864726177206d6f6e65792066726f6d20636f60008201527f6e74726163742e00000000000000000000000000000000000000000000000000602082015250565b7f736f667400000000000000000000000000000000000000000000000000000000600082015250565b7f6861726400000000000000000000000000000000000000000000000000000000600082015250565b50565b7f2a202a202a202a202a202a202a20594f552043414e204f4e4c5920564f54452060008201527f4f4e43452045564552592037205345434f4e4453202a202a202a202a202a202a60208201527f202a000000000000000000000000000000000000000000000000000000000000604082015250565b6116678161130b565b811461167257600080fd5b50565b61167e8161131d565b811461168957600080fd5b5056fe2573207468696e6b73204749462069732070726f6e6f756e63656420776974682061206861726420472028617320696e20676f72696c6c61290a2573207468696e6b73204749462069732070726f6e6f756e6365642077697468206120736f667420472028617320696e2067697261666665290aa2646970667358221220ac1b43c553cdb22df526ca03480bdb8895320781228be9ea45314f4cfce12ff664736f6c6343000804003354686973206973206120736d61727420636f6e747261637420666f7220766f74696e67206f6e20776865746865722027474946272069732070726f6e6f756e636564207769746820612068617264206f72206120736f667420470a",
  "linkReferences": {},
  "deployedLinkReferences": {}
}