{
  "_format": "hh-sol-artifact-1",
  "contractName": "GifPronunciationPortal",
  "sourceName": "contracts/GifPronunciationPortal.sol",
  "abi": [
    {
      "inputs": [],
      "stateMutability": "nonpayable",
      "type": "constructor"
    },
    {
      "anonymous": false,
      "inputs": [
        {
          "indexed": true,
          "internalType": "address",
          "name": "from",
          "type": "address"
        },
        {
          "indexed": false,
          "internalType": "string",
          "name": "name",
          "type": "string"
        },
        {
          "indexed": false,
          "internalType": "string",
          "name": "vote",
          "type": "string"
        },
        {
          "indexed": false,
          "internalType": "uint256",
          "name": "timestamp",
          "type": "uint256"
        }
      ],
      "name": "NewVote",
      "type": "event"
    },
    {
      "inputs": [
        {
          "internalType": "string",
          "name": "_name",
          "type": "string"
        }
      ],
      "name": "castHardVote",
      "outputs": [],
      "stateMutability": "nonpayable",
      "type": "function"
    },
    {
      "inputs": [
        {
          "internalType": "string",
          "name": "_name",
          "type": "string"
        }
      ],
      "name": "castSoftVote",
      "outputs": [],
      "stateMutability": "nonpayable",
      "type": "function"
    },
    {
      "inputs": [],
      "name": "getAllVotes",
      "outputs": [
        {
          "components": [
            {
              "internalType": "address",
              "name": "voter",
              "type": "address"
            },
            {
              "internalType": "string",
              "name": "name",
              "type": "string"
            },
            {
              "internalType": "string",
              "name": "vote",
              "type": "string"
            },
            {
              "internalType": "uint256",
              "name": "timestamp",
              "type": "uint256"
            }
          ],
          "internalType": "struct GifPronunciationPortal.Vote[]",
          "name": "",
          "type": "tuple[]"
        }
      ],
      "stateMutability": "view",
      "type": "function"
    },
    {
      "inputs": [],
      "name": "getHardTotal",
      "outputs": [
        {
          "internalType": "uint256",
          "name": "",
          "type": "uint256"
        }
      ],
      "stateMutability": "view",
      "type": "function"
    },
    {
      "inputs": [],
      "name": "getSoftTotal",
      "outputs": [
        {
          "internalType": "uint256",
          "name": "",
          "type": "uint256"
        }
      ],
      "stateMutability": "view",
      "type": "function"
    }
  ],
  "bytecode": "0x60806040523480156200001157600080fd5b50620000416040518060800160405280605b8152602001620012ad605b91396200004760201b620006cb1760201c565b620001db565b620000e7816040516024016200005e919062000154565b6040516020818303038152906040527f41304fac000000000000000000000000000000000000000000000000000000007bffffffffffffffffffffffffffffffffffffffffffffffffffffffff19166020820180517bffffffffffffffffffffffffffffffffffffffffffffffffffffffff8381831617835250505050620000ea60201b60201c565b50565b60008151905060006a636f6e736f6c652e6c6f679050602083016000808483855afa5050505050565b6000620001208262000178565b6200012c818562000183565b93506200013e81856020860162000194565b6200014981620001ca565b840191505092915050565b6000602082019050818103600083015262000170818462000113565b905092915050565b600081519050919050565b600082825260208201905092915050565b60005b83811015620001b457808201518184015260208101905062000197565b83811115620001c4576000848401525b50505050565b6000601f19601f8301169050919050565b6110c280620001eb6000396000f3fe608060405234801561001057600080fd5b50600436106100575760003560e01c80630af111c61461005c578063851b6ef21461007a578063ac7b6bc314610098578063bac3fe67146100b6578063df8253a7146100d2575b600080fd5b6100646100ee565b6040516100719190610d1a565b60405180910390f35b610082610139565b60405161008f9190610be9565b60405180910390f35b6100a061031c565b6040516100ad9190610d1a565b60405180910390f35b6100d060048036038101906100cb91906109d0565b610367565b005b6100ec60048036038101906100e791906109d0565b610519565b005b60006101316040518060400160405280601e81526020017f7765206861766520256420746f74616c2068617264204720766f7465730a0000815250600154610764565b600154905090565b60606002805480602002602001604051908101604052809291908181526020016000905b8282101561031357838290600052602060002090600402016040518060800160405290816000820160009054906101000a900473ffffffffffffffffffffffffffffffffffffffff1673ffffffffffffffffffffffffffffffffffffffff1673ffffffffffffffffffffffffffffffffffffffff1681526020016001820180546101e690610ec5565b80601f016020809104026020016040519081016040528092919081815260200182805461021290610ec5565b801561025f5780601f106102345761010080835404028352916020019161025f565b820191906000526020600020905b81548152906001019060200180831161024257829003601f168201915b5050505050815260200160028201805461027890610ec5565b80601f01602080910402602001604051908101604052809291908181526020018280546102a490610ec5565b80156102f15780601f106102c6576101008083540402835291602001916102f1565b820191906000526020600020905b8154815290600101906020018083116102d457829003601f168201915b505050505081526020016003820154815250508152602001906001019061015d565b50505050905090565b600061035f6040518060400160405280601e81526020017f7765206861766520256420746f74616c20736f6674204720766f7465730a0000815250600054610764565b600054905090565b60018060008282546103799190610df1565b925050819055506103a26040518060600160405280603a8152602001611053603a913982610800565b600260405180608001604052803373ffffffffffffffffffffffffffffffffffffffff1681526020018381526020016040518060400160405280600481526020017f6861726400000000000000000000000000000000000000000000000000000000815250815260200142815250908060018154018082558091505060019003906000526020600020906004020160009091909190915060008201518160000160006101000a81548173ffffffffffffffffffffffffffffffffffffffff021916908373ffffffffffffffffffffffffffffffffffffffff160217905550602082015181600101908051906020019061049c9291906108c5565b5060408201518160020190805190602001906104b99291906108c5565b506060820151816003015550503373ffffffffffffffffffffffffffffffffffffffff167f5aef1462484efb5eb8cb16fa191100f2c3341223dc6c2a8d5d34f3dd4f916d91824260405161050e929190610ca7565b60405180910390a250565b600160008082825461052b9190610df1565b925050819055506105546040518060600160405280603a8152602001611019603a913982610800565b600260405180608001604052803373ffffffffffffffffffffffffffffffffffffffff1681526020018381526020016040518060400160405280600481526020017f736f667400000000000000000000000000000000000000000000000000000000815250815260200142815250908060018154018082558091505060019003906000526020600020906004020160009091909190915060008201518160000160006101000a81548173ffffffffffffffffffffffffffffffffffffffff021916908373ffffffffffffffffffffffffffffffffffffffff160217905550602082015181600101908051906020019061064e9291906108c5565b50604082015181600201908051906020019061066b9291906108c5565b506060820151816003015550503373ffffffffffffffffffffffffffffffffffffffff167f5aef1462484efb5eb8cb16fa191100f2c3341223dc6c2a8d5d34f3dd4f916d9182426040516106c0929190610c64565b60405180910390a250565b610761816040516024016106df9190610c0b565b6040516020818303038152906040527f41304fac000000000000000000000000000000000000000000000000000000007bffffffffffffffffffffffffffffffffffffffffffffffffffffffff19166020820180517bffffffffffffffffffffffffffffffffffffffffffffffffffffffff838183161783525050505061089c565b50565b6107fc828260405160240161077a929190610cea565b6040516020818303038152906040527f9710a9d0000000000000000000000000000000000000000000000000000000007bffffffffffffffffffffffffffffffffffffffffffffffffffffffff19166020820180517bffffffffffffffffffffffffffffffffffffffffffffffffffffffff838183161783525050505061089c565b5050565b6108988282604051602401610816929190610c2d565b6040516020818303038152906040527f4b5c4277000000000000000000000000000000000000000000000000000000007bffffffffffffffffffffffffffffffffffffffffffffffffffffffff19166020820180517bffffffffffffffffffffffffffffffffffffffffffffffffffffffff838183161783525050505061089c565b5050565b60008151905060006a636f6e736f6c652e6c6f679050602083016000808483855afa5050505050565b8280546108d190610ec5565b90600052602060002090601f0160209004810192826108f3576000855561093a565b82601f1061090c57805160ff191683800117855561093a565b8280016001018555821561093a579182015b8281111561093957825182559160200191906001019061091e565b5b509050610947919061094b565b5090565b5b8082111561096457600081600090555060010161094c565b5090565b600061097b61097684610d5a565b610d35565b90508281526020810184848401111561099357600080fd5b61099e848285610e83565b509392505050565b600082601f8301126109b757600080fd5b81356109c7848260208601610968565b91505092915050565b6000602082840312156109e257600080fd5b600082013567ffffffffffffffff8111156109fc57600080fd5b610a08848285016109a6565b91505092915050565b6000610a1d8383610b61565b905092915050565b610a2e81610e47565b82525050565b6000610a3f82610d9b565b610a498185610dbe565b935083602082028501610a5b85610d8b565b8060005b85811015610a975784840389528151610a788582610a11565b9450610a8383610db1565b925060208a01995050600181019050610a5f565b50829750879550505050505092915050565b6000610ab482610da6565b610abe8185610dcf565b9350610ace818560208601610e92565b610ad781610fb5565b840191505092915050565b6000610aed82610da6565b610af78185610de0565b9350610b07818560208601610e92565b610b1081610fb5565b840191505092915050565b6000610b28600483610de0565b9150610b3382610fc6565b602082019050919050565b6000610b4b600483610de0565b9150610b5682610fef565b602082019050919050565b6000608083016000830151610b796000860182610a25565b5060208301518482036020860152610b918282610aa9565b91505060408301518482036040860152610bab8282610aa9565b9150506060830151610bc06060860182610bcb565b508091505092915050565b610bd481610e79565b82525050565b610be381610e79565b82525050565b60006020820190508181036000830152610c038184610a34565b905092915050565b60006020820190508181036000830152610c258184610ae2565b905092915050565b60006040820190508181036000830152610c478185610ae2565b90508181036020830152610c5b8184610ae2565b90509392505050565b60006060820190508181036000830152610c7e8185610ae2565b90508181036020830152610c9181610b1b565b9050610ca06040830184610bda565b9392505050565b60006060820190508181036000830152610cc18185610ae2565b90508181036020830152610cd481610b3e565b9050610ce36040830184610bda565b9392505050565b60006040820190508181036000830152610d048185610ae2565b9050610d136020830184610bda565b9392505050565b6000602082019050610d2f6000830184610bda565b92915050565b6000610d3f610d50565b9050610d4b8282610ef7565b919050565b6000604051905090565b600067ffffffffffffffff821115610d7557610d74610f86565b5b610d7e82610fb5565b9050602081019050919050565b6000819050602082019050919050565b600081519050919050565b600081519050919050565b6000602082019050919050565b600082825260208201905092915050565b600082825260208201905092915050565b600082825260208201905092915050565b6000610dfc82610e79565b9150610e0783610e79565b9250827fffffffffffffffffffffffffffffffffffffffffffffffffffffffffffffffff03821115610e3c57610e3b610f28565b5b828201905092915050565b6000610e5282610e59565b9050919050565b600073ffffffffffffffffffffffffffffffffffffffff82169050919050565b6000819050919050565b82818337600083830152505050565b60005b83811015610eb0578082015181840152602081019050610e95565b83811115610ebf576000848401525b50505050565b60006002820490506001821680610edd57607f821691505b60208210811415610ef157610ef0610f57565b5b50919050565b610f0082610fb5565b810181811067ffffffffffffffff82111715610f1f57610f1e610f86565b5b80604052505050565b7f4e487b7100000000000000000000000000000000000000000000000000000000600052601160045260246000fd5b7f4e487b7100000000000000000000000000000000000000000000000000000000600052602260045260246000fd5b7f4e487b7100000000000000000000000000000000000000000000000000000000600052604160045260246000fd5b6000601f19601f8301169050919050565b7f736f667400000000000000000000000000000000000000000000000000000000600082015250565b7f686172640000000000000000000000000000000000000000000000000000000060008201525056fe2573207468696e6b73204749462069732070726f6e6f756e6365642077697468206120736f667420472028617320696e20676972616666650a292573207468696e6b73204749462069732070726f6e6f756e63656420776974682061206861726420472028617320696e20676f72696c6c610a29a2646970667358221220f616bc44cb551d1ea323bd8521842d03f33bf39e26e361f4c0029d5db8a2778664736f6c6343000804003354686973206973206120736d61727420636f6e747261637420666f7220766f74696e67206f6e20776865746865722027474946272069732070726f6e6f756e636564207769746820612068617264206f72206120736f667420470a",
  "linkReferences": {},
  "deployedLinkReferences": {}
}