{
  "_format": "hh-sol-artifact-1",
  "contractName": "GifPronunciationPortal",
  "sourceName": "contracts/GifPronunciationPortal.sol",
  "abi": [
    {
      "inputs": [],
      "stateMutability": "nonpayable",
      "type": "constructor"
    },
    {
      "inputs": [],
      "name": "castHardVote",
      "outputs": [],
      "stateMutability": "nonpayable",
      "type": "function"
    },
    {
      "inputs": [],
      "name": "castSoftVote",
      "outputs": [],
      "stateMutability": "nonpayable",
      "type": "function"
    },
    {
      "inputs": [],
      "name": "getHardTotal",
      "outputs": [
        {
          "internalType": "uint256",
          "name": "",
          "type": "uint256"
        }
      ],
      "stateMutability": "view",
      "type": "function"
    },
    {
      "inputs": [],
      "name": "getSoftTotal",
      "outputs": [
        {
          "internalType": "uint256",
          "name": "",
          "type": "uint256"
        }
      ],
      "stateMutability": "view",
      "type": "function"
    }
  ],
  "bytecode": "0x608060405234801561001057600080fd5b5061003c6040518060800160405280605b8152602001610840605b913961004160201b6101b11760201c565b6101c4565b6100dd816040516024016100559190610142565b6040516020818303038152906040527f41304fac000000000000000000000000000000000000000000000000000000007bffffffffffffffffffffffffffffffffffffffffffffffffffffffff19166020820180517bffffffffffffffffffffffffffffffffffffffffffffffffffffffff83818316178352505050506100e060201b60201c565b50565b60008151905060006a636f6e736f6c652e6c6f679050602083016000808483855afa5050505050565b600061011482610164565b61011e818561016f565b935061012e818560208601610180565b610137816101b3565b840191505092915050565b6000602082019050818103600083015261015c8184610109565b905092915050565b600081519050919050565b600082825260208201905092915050565b60005b8381101561019e578082015181840152602081019050610183565b838111156101ad576000848401525b50505050565b6000601f19601f8301169050919050565b61066d806101d36000396000f3fe608060405234801561001057600080fd5b506004361061004c5760003560e01c806305343cd0146100515780630af111c61461005b578063ac7b6bc314610079578063cedee2cf14610097575b600080fd5b6100596100a1565b005b6100636100de565b6040516100709190610484565b60405180910390f35b610081610129565b60405161008e9190610484565b60405180910390f35b61009f610174565b005b60016000808282546100b391906104bb565b925050819055506100dc6040518060600160405280603a81526020016105fe603a91393361024a565b565b60006101216040518060400160405280601e81526020017f7765206861766520256420746f74616c2068617264204720766f7465730a00008152506001546102e6565b600154905090565b600061016c6040518060400160405280601e81526020017f7765206861766520256420746f74616c20736f6674204720766f7465730a00008152506000546102e6565b600054905090565b600180600082825461018691906104bb565b925050819055506101af6040518060600160405280603d81526020016105c1603d91393361024a565b565b610247816040516024016101c59190610402565b6040516020818303038152906040527f41304fac000000000000000000000000000000000000000000000000000000007bffffffffffffffffffffffffffffffffffffffffffffffffffffffff19166020820180517bffffffffffffffffffffffffffffffffffffffffffffffffffffffff8381831617835250505050610382565b50565b6102e28282604051602401610260929190610424565b6040516020818303038152906040527f319af333000000000000000000000000000000000000000000000000000000007bffffffffffffffffffffffffffffffffffffffffffffffffffffffff19166020820180517bffffffffffffffffffffffffffffffffffffffffffffffffffffffff8381831617835250505050610382565b5050565b61037e82826040516024016102fc929190610454565b6040516020818303038152906040527f9710a9d0000000000000000000000000000000000000000000000000000000007bffffffffffffffffffffffffffffffffffffffffffffffffffffffff19166020820180517bffffffffffffffffffffffffffffffffffffffffffffffffffffffff8381831617835250505050610382565b5050565b60008151905060006a636f6e736f6c652e6c6f679050602083016000808483855afa5050505050565b6103b481610511565b82525050565b60006103c58261049f565b6103cf81856104aa565b93506103df81856020860161054d565b6103e8816105af565b840191505092915050565b6103fc81610543565b82525050565b6000602082019050818103600083015261041c81846103ba565b905092915050565b6000604082019050818103600083015261043e81856103ba565b905061044d60208301846103ab565b9392505050565b6000604082019050818103600083015261046e81856103ba565b905061047d60208301846103f3565b9392505050565b600060208201905061049960008301846103f3565b92915050565b600081519050919050565b600082825260208201905092915050565b60006104c682610543565b91506104d183610543565b9250827fffffffffffffffffffffffffffffffffffffffffffffffffffffffffffffffff0382111561050657610505610580565b5b828201905092915050565b600061051c82610523565b9050919050565b600073ffffffffffffffffffffffffffffffffffffffff82169050919050565b6000819050919050565b60005b8381101561056b578082015181840152602081019050610550565b8381111561057a576000848401525b50505050565b7f4e487b7100000000000000000000000000000000000000000000000000000000600052601160045260246000fd5b6000601f19601f830116905091905056fe2573207468696e6b73204749462069732070726f6e6f756e63656420776974682061206861726420472028617320696e206769726c667269656e640a292573207468696e6b73204749462069732070726f6e6f756e6365642077697468206120736f667420472028617320696e20676972616666650a29a264697066735822122041fe2263b1c3d5b76a4361ef31d06a5d6675e6f7ad7aea9c2b190656c62a223c64736f6c6343000804003354686973206973206120736d61727420636f6e747261637420666f7220766f74696e67206f6e20776865746865722027474946272069732070726f6e6f756e636564207769746820612068617264206f72206120736f667420470a",
  "linkReferences": {},
  "deployedLinkReferences": {}
}