{
  "_format": "hh-sol-artifact-1",
  "contractName": "GifPronunciationPortal",
  "sourceName": "contracts/GifPronunciationPortal.sol",
  "abi": [
    {
      "inputs": [],
      "stateMutability": "payable",
      "type": "constructor"
    },
    {
      "anonymous": false,
      "inputs": [
        {
          "indexed": true,
          "internalType": "address",
          "name": "from",
          "type": "address"
        },
        {
          "indexed": false,
          "internalType": "string",
          "name": "name",
          "type": "string"
        },
        {
          "indexed": false,
          "internalType": "string",
          "name": "vote",
          "type": "string"
        },
        {
          "indexed": false,
          "internalType": "uint256",
          "name": "timestamp",
          "type": "uint256"
        }
      ],
      "name": "NewVote",
      "type": "event"
    },
    {
      "inputs": [
        {
          "internalType": "string",
          "name": "_name",
          "type": "string"
        }
      ],
      "name": "castHardVote",
      "outputs": [],
      "stateMutability": "nonpayable",
      "type": "function"
    },
    {
      "inputs": [
        {
          "internalType": "string",
          "name": "_name",
          "type": "string"
        }
      ],
      "name": "castSoftVote",
      "outputs": [],
      "stateMutability": "nonpayable",
      "type": "function"
    },
    {
      "inputs": [],
      "name": "getAllVotes",
      "outputs": [
        {
          "components": [
            {
              "internalType": "address",
              "name": "voter",
              "type": "address"
            },
            {
              "internalType": "string",
              "name": "name",
              "type": "string"
            },
            {
              "internalType": "string",
              "name": "vote",
              "type": "string"
            },
            {
              "internalType": "uint256",
              "name": "timestamp",
              "type": "uint256"
            }
          ],
          "internalType": "struct GifPronunciationPortal.Vote[]",
          "name": "",
          "type": "tuple[]"
        }
      ],
      "stateMutability": "view",
      "type": "function"
    },
    {
      "inputs": [],
      "name": "getHardTotal",
      "outputs": [
        {
          "internalType": "uint256",
          "name": "",
          "type": "uint256"
        }
      ],
      "stateMutability": "view",
      "type": "function"
    },
    {
      "inputs": [],
      "name": "getSoftTotal",
      "outputs": [
        {
          "internalType": "uint256",
          "name": "",
          "type": "uint256"
        }
      ],
      "stateMutability": "view",
      "type": "function"
    }
  ],
  "bytecode": "0x6080604052620000336040518060800160405280605b815260200162001601605b91396200003960201b620008c31760201c565b620001cd565b620000d98160405160240162000050919062000146565b6040516020818303038152906040527f41304fac000000000000000000000000000000000000000000000000000000007bffffffffffffffffffffffffffffffffffffffffffffffffffffffff19166020820180517bffffffffffffffffffffffffffffffffffffffffffffffffffffffff8381831617835250505050620000dc60201b60201c565b50565b60008151905060006a636f6e736f6c652e6c6f679050602083016000808483855afa5050505050565b600062000112826200016a565b6200011e818562000175565b93506200013081856020860162000186565b6200013b81620001bc565b840191505092915050565b6000602082019050818103600083015262000162818462000105565b905092915050565b600081519050919050565b600082825260208201905092915050565b60005b83811015620001a657808201518184015260208101905062000189565b83811115620001b6576000848401525b50505050565b6000601f19601f8301169050919050565b61142480620001dd6000396000f3fe608060405234801561001057600080fd5b50600436106100575760003560e01c80630af111c61461005c578063851b6ef21461007a578063ac7b6bc314610098578063bac3fe67146100b6578063df8253a7146100d2575b600080fd5b6100646100ee565b6040516100719190610fd0565b60405180910390f35b610082610139565b60405161008f9190610e5f565b60405180910390f35b6100a061031c565b6040516100ad9190610fd0565b60405180910390f35b6100d060048036038101906100cb9190610bc8565b610367565b005b6100ec60048036038101906100e79190610bc8565b610615565b005b60006101316040518060400160405280601e81526020017f7765206861766520256420746f74616c2068617264204720766f7465730a000081525060015461095c565b600154905090565b60606002805480602002602001604051908101604052809291908181526020016000905b8282101561031357838290600052602060002090600402016040518060800160405290816000820160009054906101000a900473ffffffffffffffffffffffffffffffffffffffff1673ffffffffffffffffffffffffffffffffffffffff1673ffffffffffffffffffffffffffffffffffffffff1681526020016001820180546101e690611186565b80601f016020809104026020016040519081016040528092919081815260200182805461021290611186565b801561025f5780601f106102345761010080835404028352916020019161025f565b820191906000526020600020905b81548152906001019060200180831161024257829003601f168201915b5050505050815260200160028201805461027890611186565b80601f01602080910402602001604051908101604052809291908181526020018280546102a490611186565b80156102f15780601f106102c6576101008083540402835291602001916102f1565b820191906000526020600020905b8154815290600101906020018083116102d457829003601f168201915b505050505081526020016003820154815250508152602001906001019061015d565b50505050905090565b600061035f6040518060400160405280601e81526020017f7765206861766520256420746f74616c20736f6674204720766f7465730a000081525060005461095c565b600054905090565b600180600082825461037991906110b2565b925050819055506103a26040518060600160405280603a81526020016113b5603a9139826109f8565b600260405180608001604052803373ffffffffffffffffffffffffffffffffffffffff1681526020018381526020016040518060400160405280600481526020017f6861726400000000000000000000000000000000000000000000000000000000815250815260200142815250908060018154018082558091505060019003906000526020600020906004020160009091909190915060008201518160000160006101000a81548173ffffffffffffffffffffffffffffffffffffffff021916908373ffffffffffffffffffffffffffffffffffffffff160217905550602082015181600101908051906020019061049c929190610abd565b5060408201518160020190805190602001906104b9929190610abd565b506060820151816003015550503373ffffffffffffffffffffffffffffffffffffffff167f5aef1462484efb5eb8cb16fa191100f2c3341223dc6c2a8d5d34f3dd4f916d91824260405161050e929190610f1d565b60405180910390a26000655af3107a4000905047811115610564576040517f08c379a000000000000000000000000000000000000000000000000000000000815260040161055b90610f90565b60405180910390fd5b60003373ffffffffffffffffffffffffffffffffffffffff168260405161058a90610e4a565b60006040518083038185875af1925050503d80600081146105c7576040519150601f19603f3d011682016040523d82523d6000602084013e6105cc565b606091505b5050905080610610576040517f08c379a000000000000000000000000000000000000000000000000000000000815260040161060790610fb0565b60405180910390fd5b505050565b600160008082825461062791906110b2565b925050819055506106506040518060600160405280603a815260200161137b603a9139826109f8565b600260405180608001604052803373ffffffffffffffffffffffffffffffffffffffff1681526020018381526020016040518060400160405280600481526020017f736f667400000000000000000000000000000000000000000000000000000000815250815260200142815250908060018154018082558091505060019003906000526020600020906004020160009091909190915060008201518160000160006101000a81548173ffffffffffffffffffffffffffffffffffffffff021916908373ffffffffffffffffffffffffffffffffffffffff160217905550602082015181600101908051906020019061074a929190610abd565b506040820151816002019080519060200190610767929190610abd565b506060820151816003015550503373ffffffffffffffffffffffffffffffffffffffff167f5aef1462484efb5eb8cb16fa191100f2c3341223dc6c2a8d5d34f3dd4f916d9182426040516107bc929190610eda565b60405180910390a26000655af3107a4000905047811115610812576040517f08c379a000000000000000000000000000000000000000000000000000000000815260040161080990610f90565b60405180910390fd5b60003373ffffffffffffffffffffffffffffffffffffffff168260405161083890610e4a565b60006040518083038185875af1925050503d8060008114610875576040519150601f19603f3d011682016040523d82523d6000602084013e61087a565b606091505b50509050806108be576040517f08c379a00000000000000000000000000000000000000000000000000000000081526004016108b590610fb0565b60405180910390fd5b505050565b610959816040516024016108d79190610e81565b6040516020818303038152906040527f41304fac000000000000000000000000000000000000000000000000000000007bffffffffffffffffffffffffffffffffffffffffffffffffffffffff19166020820180517bffffffffffffffffffffffffffffffffffffffffffffffffffffffff8381831617835250505050610a94565b50565b6109f48282604051602401610972929190610f60565b6040516020818303038152906040527f9710a9d0000000000000000000000000000000000000000000000000000000007bffffffffffffffffffffffffffffffffffffffffffffffffffffffff19166020820180517bffffffffffffffffffffffffffffffffffffffffffffffffffffffff8381831617835250505050610a94565b5050565b610a908282604051602401610a0e929190610ea3565b6040516020818303038152906040527f4b5c4277000000000000000000000000000000000000000000000000000000007bffffffffffffffffffffffffffffffffffffffffffffffffffffffff19166020820180517bffffffffffffffffffffffffffffffffffffffffffffffffffffffff8381831617835250505050610a94565b5050565b60008151905060006a636f6e736f6c652e6c6f679050602083016000808483855afa5050505050565b828054610ac990611186565b90600052602060002090601f016020900481019282610aeb5760008555610b32565b82601f10610b0457805160ff1916838001178555610b32565b82800160010185558215610b32579182015b82811115610b31578251825591602001919060010190610b16565b5b509050610b3f9190610b43565b5090565b5b80821115610b5c576000816000905550600101610b44565b5090565b6000610b73610b6e84611010565b610feb565b905082815260208101848484011115610b8b57600080fd5b610b96848285611144565b509392505050565b600082601f830112610baf57600080fd5b8135610bbf848260208601610b60565b91505092915050565b600060208284031215610bda57600080fd5b600082013567ffffffffffffffff811115610bf457600080fd5b610c0084828501610b9e565b91505092915050565b6000610c158383610dc2565b905092915050565b610c2681611108565b82525050565b6000610c3782611051565b610c418185611074565b935083602082028501610c5385611041565b8060005b85811015610c8f5784840389528151610c708582610c09565b9450610c7b83611067565b925060208a01995050600181019050610c57565b50829750879550505050505092915050565b6000610cac8261105c565b610cb68185611090565b9350610cc6818560208601611153565b610ccf81611276565b840191505092915050565b6000610ce58261105c565b610cef81856110a1565b9350610cff818560208601611153565b610d0881611276565b840191505092915050565b6000610d206040836110a1565b9150610d2b82611287565b604082019050919050565b6000610d436027836110a1565b9150610d4e826112d6565b604082019050919050565b6000610d666004836110a1565b9150610d7182611325565b602082019050919050565b6000610d896004836110a1565b9150610d948261134e565b602082019050919050565b6000610dac600083611085565b9150610db782611377565b600082019050919050565b6000608083016000830151610dda6000860182610c1d565b5060208301518482036020860152610df28282610ca1565b91505060408301518482036040860152610e0c8282610ca1565b9150506060830151610e216060860182610e2c565b508091505092915050565b610e358161113a565b82525050565b610e448161113a565b82525050565b6000610e5582610d9f565b9150819050919050565b60006020820190508181036000830152610e798184610c2c565b905092915050565b60006020820190508181036000830152610e9b8184610cda565b905092915050565b60006040820190508181036000830152610ebd8185610cda565b90508181036020830152610ed18184610cda565b90509392505050565b60006060820190508181036000830152610ef48185610cda565b90508181036020830152610f0781610d59565b9050610f166040830184610e3b565b9392505050565b60006060820190508181036000830152610f378185610cda565b90508181036020830152610f4a81610d7c565b9050610f596040830184610e3b565b9392505050565b60006040820190508181036000830152610f7a8185610cda565b9050610f896020830184610e3b565b9392505050565b60006020820190508181036000830152610fa981610d13565b9050919050565b60006020820190508181036000830152610fc981610d36565b9050919050565b6000602082019050610fe56000830184610e3b565b92915050565b6000610ff5611006565b905061100182826111b8565b919050565b6000604051905090565b600067ffffffffffffffff82111561102b5761102a611247565b5b61103482611276565b9050602081019050919050565b6000819050602082019050919050565b600081519050919050565b600081519050919050565b6000602082019050919050565b600082825260208201905092915050565b600081905092915050565b600082825260208201905092915050565b600082825260208201905092915050565b60006110bd8261113a565b91506110c88361113a565b9250827fffffffffffffffffffffffffffffffffffffffffffffffffffffffffffffffff038211156110fd576110fc6111e9565b5b828201905092915050565b60006111138261111a565b9050919050565b600073ffffffffffffffffffffffffffffffffffffffff82169050919050565b6000819050919050565b82818337600083830152505050565b60005b83811015611171578082015181840152602081019050611156565b83811115611180576000848401525b50505050565b6000600282049050600182168061119e57607f821691505b602082108114156111b2576111b1611218565b5b50919050565b6111c182611276565b810181811067ffffffffffffffff821117156111e0576111df611247565b5b80604052505050565b7f4e487b7100000000000000000000000000000000000000000000000000000000600052601160045260246000fd5b7f4e487b7100000000000000000000000000000000000000000000000000000000600052602260045260246000fd5b7f4e487b7100000000000000000000000000000000000000000000000000000000600052604160045260246000fd5b6000601f19601f8301169050919050565b7f547279696e6720746f207769746864726177206d6f7265206d6f6e657920746860008201527f616e20697320617661696c61626c6520696e2074686520636f6e74726163742e602082015250565b7f4661696c656420746f207769746864726177206d6f6e65792066726f6d20636f60008201527f6e74726163742e00000000000000000000000000000000000000000000000000602082015250565b7f736f667400000000000000000000000000000000000000000000000000000000600082015250565b7f6861726400000000000000000000000000000000000000000000000000000000600082015250565b5056fe2573207468696e6b73204749462069732070726f6e6f756e6365642077697468206120736f667420472028617320696e20676972616666650a292573207468696e6b73204749462069732070726f6e6f756e63656420776974682061206861726420472028617320696e20676f72696c6c610a29a264697066735822122040e53ea99b032af061c6550815fb529bd7ae8733ef3f7a27ec545d6c032f280a64736f6c6343000804003354686973206973206120736d61727420636f6e747261637420666f7220766f74696e67206f6e20776865746865722027474946272069732070726f6e6f756e636564207769746820612068617264206f72206120736f667420470a",
  "linkReferences": {},
  "deployedLinkReferences": {}
}